:400000000080002011000000350700003507000010B500F0AFFBC04670B512222F4B1A6000F046FD2E4801F087FB012000F060FD302000F057FC2B4A2B4B1A602B4C802547
:40004000ED0525602A4A116802230B431360294A294B1A600022294B1A60294A136808218B431360FA20C00000F0EEFC254800F02FFC8022D200244B1A60244B244919607F
:4000800024490A60244A1A60E8214901234A1160234A1A6088218901224A1160224A1A6082221206214B1A608022D202204B1A604122204B1A60013A1F4B1A6002321F4B71
:4000C0001A6001321E4B1A601E49082000F0B0FB082000F0A1FB256070BDC04630001040001BB7000600008004010B400C020B4078002E402D3E00007C002E4064F02E405C
:400100006CF02E40DC050000040301400000014041FF00800003014040FF00800803014042FF00800C03014043FF008008010B4000010B40280101401C01014018010140E7
:4001400004010140090C000010B572B600223B4B1A6001323A4B1A7000240FE039486200131959000B00411889881A5AC31858880004104300F0A4FA0134E4B2012CEDD911
:4001800030490C313048683000F080FA2F4A304B1A60304A304B1A60304B314A1360314A136099231B04304A1360C52109042F4A11602F4A13602F4A1360D82149032E4AA1
:4001C00011602E4A13609C2212042D4B1A600E232C4A13602C4A13602C490B783C22934314221343DBB20B70294A117816230B43DBB213700C22274B1A60274A274B1A6010
:400200000822274B1A605832264B1A60264A274B1A602022264B1A60013A264B1A60264A264B1A600F22264B1A60264A264B1A60FFF7F2FE00F05AFA10BDC0466CF02E40EB
:400240001C700F404023000040250000006300EE00000240000099080001024033330000000202400003024000500F4008500F4010500F4020500F4028500F4030500F402B
:4002800038500F402000104000800F4001700F4000700F4000000440B601D80008000440180004400001044000101B00080104401801044000020440B62D0300080204409A
:4002C00000030440B66D00000803044010B5064C2378002B07D1054B002B02D0044800E000BF0123237010BDC80E00200000000008230000084B10B5002B03D007490848FD
:4003000000E000BF07480368002B00D110BD064B002BFBD09847F9E700000000CC0E002008230000400E00200000000010B5012000F082FF002000F08BFF10BD10B500205F
:4003400000F07AFF012000F083FF10BD10B5002000F066FF002000F0A3FF10BD70B582B005006B469E1D0023338001AC238000F003FF002000F00AFF3080318809B20020BE
:4003800000F01AFF2080224800F08AFF208800B22C00401BC317C0185840502835DD01AB1B881BB29D420DDB12E0FFF7C7FF00F0E3FE002000F0EAFE0100002000F0FCFE97
:4003C00001AB188001AB1B881BB29C42EDDB17E001AB1B881BB29D420DDC11E0FFF7A6FF00F0CAFE002000F0D1FE0100002000F0E3FE01AB188001AB1B881BB29C42EDDC00
:40040000FFF7A4FF962000F04BFA02B070BDC046EE02000010B5002000F026FF002000F0FBFD0548FFF79AFF012000F01DFF012000F0F2FDF8E7C0468A07000010B50020FD
:4004400000F04EFD002000F0CFFD012000F060FD012000F0D5FD012000F066FD012000F0B7FD012000F048FD012000F0A5FD10BDF0B557464E46C0B485B081468A460024CB
:400480000EE0B4235B003F4AD2580021200001F02BF8012000F0D4FF322000F001FA0134062CEEDD0021002001F030F802908708354B1F407E08354A16400196B5081D405B
:4004C00003950026012528001730182101F0CAF908002C4B1A6E002101F006F8E81C182101F0C0F90800029A002100F0FDFF1821280001F0B7F90800039C2200002100F031
:40050000F3FFA81D182101F0ADF908002200002100F0EAFF681C182101F0A4F90C00019A0021200000F0E0FF681D182101F09AF90800019A002100F0D7FFA81C182101F054
:4005400091F908003A00002100F0CEFF281D182101F088F908003A00002100F0C5FF012000F06EFF322000F09BF9544501D1731CDEB225004E45A6D105B00CBC91469A4689
:40058000F0BDC046002600003F3F3F007F7F7F00F0B58FB062B6FFF7D9FE00F00DFC2D4800F0FCFC00232C4A137001212B4A117036266E4433800DAC238000F0CDFD28488E
:4005C00000F082FCFA25AD00280000F069F9002000F026FE00F0CCFB00F0B4FEAF20800000F05EFE012000F03FFE012000F014FD00F0DCFF022000F09DFF1A4B1F6E38000C
:4006000000F06AFF380000F051FF3A000021002000F06AFF13210220FFF72AFF00F0ACFD002000F0B3FD3080318809B2002000F0C3FD2080228812B20B49684601F040FA18
:40064000684600F041FC280000F040FBFFF7F6FEFFF7E0FE81060000340F0020350F00200C230000002600002823000010B5002000F0D2FC0022014B1A7010BD370F0020D2
:4006800010B5FFF7F3FF00F05BFC10BDF0B50025002711E0BB00C658F3B2FF22964308E06A008A181478A419527822700135013BDBB2002BF4D10137092FEBD9F0BDC046B0
:4006C00010B50A00002101F0F2F910BD064B1B68002803D080221206134301E05B005B08014A13607047C04680033A4010B503230A4A13600A4A13600A4A13608022120671
:40070000094B1A608022D202084B1A600022084B1A600120FFF7DAFF10BDC04608210240300030403000314000003A4000033A40000E3F4010B501F085F903680C2B00D11F
:40074000FEE7FEE710B50300084A1068C318084A9A1A802A02DC054A136005E001F072F90C2303600120404210BDC046440E0020E80F002070B50F4E0F4D13E029686B68EB
:40078000AC68002202E001C901C30432A242FAD1E868002202E0002102C304328242FAD11035013E002EE9D101F052F9FFF7F0FEFEE7C046010000001C2A000010B50E4AD4
:4007C000136801218B43136000230AE0032B03D89A000A49505800E009489900094A885001332F2BF2D9FFF7AFFC034A116801230B43136010BDC0460000104000000000B3
:400800003507000000000020024B1B68012018407047C0460C002E401F2318401E3B8340014A13607047C04600E100E001BE704770B504000D001F2802D90020FFF7F6FF11
:400840001034A40080239B059C4664442068256070BDC04670B504000E00032902D90020FFF7E4FF1F2C02D90020FFF7DFFF03252540ED00063500F068FFA408A400074B84
:400880009C46644421680323AB4099430B003100A9401943216000F05CFF70BD00E400E010B5040006E0084B586800F045FF074B9C46644480231B029C42F4D8024B986871
:4008C000604300F039FF10BD480E00200080FFFF10B5034B1B7B584300F02EFF10BDC046480E0020F0B557464E46C0B483B0040000F02BFF0190E71E2D2F74D83F4B1B78CC
:40090000DBB29C4208D83E4B1B78DBB29A463D4B1B78DBB2994631E03B4B1B78DBB29C4208D83A4B1B78DBB29A46394B1B78DBB2994623E0374B1B78DBB29C4208D8364BFB
:400940001B78DBB29A46354B1B78DBB2994615E0334B1B78DBB29C4208D8324B1B78DBB29A46314B1B78DBB2994607E02F4B1B78DBB29A462E4B1B78DBB299462D4BDE5D23
:400980002F2E09D92A2C07D919222B4B1A60052000F0D2FE192503E0274B1D683F231D40B54206D9234BDA5D234B1A60052000F0C3FE1F4B9C4664442378DBB21F4A1360AA
:4009C0001F4B52461A601F4B4A461A600520FFF77FFFB5420AD2174BDA5D174B1A60052000F0AAFE02E00020FFF720FF019800F0B0FE03B00CBC91469A46F0BD40F3FF0FFB
:400A000041F3FF0F42F3FF0F43F3FF0F44F3FF0F45F3FF0F46F3FF0F47F3FF0F48F3FF0F49F3FF0F4AF3FF0F4BF3FF0F4CF3FF0F4DF3FF0FD02500002CFF0B4028FF0B4031
:400A40001CFF0B4020FF0B4010B504000F4A116801230B4313600E4A0E4B1A600E4A1368802109020B431360002809D100200CE00120FFF72DFFFFF7C7FE002804D1013C75
:400A8000002CF5D1102000E0002010BD60F02E400220000078002E4010002E40034B1868C0231B02184000D00120704700010B4010B50D4B1A6801218A431A601A6802203D
:400AC00082431A60094A10683024A043203C204310601068093CA043014311601A68802109060A431A6010BD00F02E4000FF2E4070B51D4B1B6801241C40002802D00128EC
:400B000016D02BE0184B19680122914319601968022081431960154B19682E3081432038014319601968093881430A431A6018E00D4B1A6802218A431A600C4A10680725F5
:400B4000A84301431160116830208143103801431160196801220A431A6002E00020FFF765FE200070BDC04600F02E4000FF2E4010B500F0EAFD044A1368C02109020B43C8
:400B8000136000F0E6FD10BD00010B4010B500F0DCFD08490A68084B1A408024E40122430A600A6813408022120213430B6000F0D0FD10BD00010B40FF3FFFFF70B5050008
:400BC00000F0C3FD0400FFF769FF002803D0FFF7DDFF012100E0002108482840084A1568084B2B40184310601368012901D1FFF7BFFF200000F0ADFD70BDC04604040400BF
:400C000010020B40FBFBFBFF10B5244B1B685B0715D5234B5B685B070ED5224B596A042001401F4C62688A4362605A6A82435A629B69002B00D098470420FFF7BFFF174B38
:400C40001B685B0518D5164B5B685B0510D5154B596A8022D2001140114842688A434260596A114A0A405A62DB69002B00D098478020C000FFF7A2FF084B1B685B030CD593
:400C8000074B5B685B0304D5064B1B6A002B00D098478020C002FFF791FF10BD10020B405C0E0020E40E0020FFFBFFFF0004000C014B18607047C046080120400004000C88
:400CC000014B18607047C046140120400004000C014B18607047C0460C01204070B504000D0000F032FDAC40024B1C6000F031FD70BDC0460800204010B500F026FD064A15
:400D0000116801230B43136000F023FD18210120FFF7E4FF10BDC04600002040014B18607047C0463801204010B50E4C8023DB042360236823600020FFF7B8FF23682360B8
:400D40000C22094B1A600120FFF7E8FF3122074B1A60FA208000FFF7B1FFFA204000FFF7B5FF10BD00012040240120402801204010B5064B1B78002B04D1FFF7D5FF012244
:400D8000024B1A70FFF7B8FF10BDC0460C0F002010B500F083F810BD10B500F02BF810BD10B5044A1368802109060B431360FFF7EFFF10BD0000244010B5064B1B78002B17
:400DC00004D1FFF7E9FF0122024B1A70FFF7E8FF10BDC0460E0F0020044B1B681F221340082BF9D0024B18607047C0460802244040022440154A164B1A600023154A136032
:400E00001549164A1160164A16490A6007201649086016490B6006381549086015490A60154A13600421154A1160154A1360154A1360154A1360154A1360154A1360154A96
:400E400013601268144B1A807047C0460B000002000024404000244001000A0048002440070000800003244004032440100324404400244000022440040224405000244007
:400E8000880E2440C80E2440480F2440080F2440C80F2440880F2440100F0020064A1168064B0B40902109040B431360044B1A88044B1A607047C04600010240FFFF0FFFA9
:400EC000100F0020880F244070B50500002402E0FFF782FF0134285D0028F9D170BDC046044A1368DBB201218B430840184310607047C0460002044004490A68D2B2082368
:400F00009A43C00018401043086070470002044004490A68D2B202239A43400018401043086070470002044004490A68D2B204239A43800018401043086070470002044098
:400F4000034A10681023184010600009C0B2704710020440014B58647047C0460000002010B5040000F0F1FB044A1168044B0B40A4031C43146000F0ECFB10BD00E400E05C
:400F8000FF3FFFFF0222014B1A60704700E100E00222014B1A60704780E100E010B50400FFF7F6FF2000FFF7D5FF0320FFF7D8FFFFF7E8FF10BDC04604490A68D2B2082305
:400FC0009A43C00018401043086070470003044004490A68D2B204239A438000184010430860704700030440044A1368DBB201218B430840184310607047C046000304400E
:4010000004490A68D2B202239A43400018401043086070470003044004490A68D2B210239A43000118401043086070470003044010B503210F20FFF70DFC23490F20FFF70D
:40104000F7FB0122214B1A60214B1B68002B01DA204900E02049214A13680B431360204A204B1A60204A214B1A600023204A1360204A21490A6021490A6021490A688020FA
:40108000400202430A601F4A13601F4A136001221E4B1A601E4A11681E4B0B40802189050B43136000230BE09A001B495018002101605C001948215219481A49505001333E
:4010C000002BF1D010BDC0461512000020003A4080033A40700210537002005300003A408C00008004003A400000FF0718003A401C003A400200020010003A4014003A408B
:4011000000033A4028023A4038023A4018023A4030003A40FEFFFFDF80003A40600F00203E1800005C0F002010B5094B1B68002B0CDB084B1B68002BFBDB054A1368802167
:4011400009060B4313600A20FFF7C2FB10BDC04600003A4008023A4010B5064B1B78002B04D1FFF765FF0122024B1A70FFF7DCFF10BDC046120F0020034A1368802149025B
:401180000B4313607047C04604003A4010B5041E02D00020FFF74AFB002C07D1A400054B9C46644420680004000C00E0002000B210BDC04680013A4070B504000D00002827
:4011C00002D00020FFF732FB63000F4A995A09B2691A09B20D484843002906DDA3000C4A9A58D30F9A18531006E0A300084A9A58D30F9A18521053421818A400044BE158B0
:4012000000F034FB00B270BD600F0020102700005C0F0020014B1A681A60704710023A4004490A68D2B240239A43800118401043086070470001044004490A68D2B2022359
:401240009A434000184010430860704700000440044A1368DBB201218B430840184310607047C0460000044004490A68D2B220239A43400118401043086070470002044035
:401280000004000C014B18607047C046C80120400004000C014B18607047C046D40120400004000C014B18607047C046CC01204070B504000D0000F048FAAC40024B1C60D3
:4012C00000F047FA70BDC0460800204010B500F03CFA064A116808230B43136000F039FA18210820FFF7E4FF10BDC04600002040014B18607047C046F801204010B50E4CF9
:401300008023DB042360236823600020FFF7B8FF236823600C22094B1A600120FFF7E8FF3122074B1A60FA208000FFF7B1FFFA204000FFF7B5FF10BDC0012040E40120402F
:40134000E801204010B5064B1B78002B04D1FFF7D5FF0122024B1A70FFF7B8FF10BDC046130F0020114B1B68172B1BD80F494A68581C086050008218D200D3189B000C4A63
:401380009B580C4A1268D3400B4A12681340D8B20A4A1070180AC0B210701B0C8B60DBB2137002E01122064B1A707047140F0020640F0020C80F0020C40F002042000F40A9
:4013C00072000F402122164B1A70164A536801335360002B1FD1DBB2134A1370114A53685900CB185B0111495B5811490968CB40104909680B40D8B20F490870180AC0B2E0
:4014000008701B0CD360DBB20B70012313600922034B1A7002E00122084B1A607047C04672000F40140F002071000F40640F0020C80F0020C40F002042000F40CC0F0020DC
:40144000002804D00023114A5360114A13700F4843685A00D3185A010E4BD3580E4A1268D3400E4A12681340D9B20D4A1170190AC9B211701B0CDBB21370012303601922B6
:40148000084B1A700022084B1A607047140F002071000F40640F0020C80F0020C40F002042000F4072000F40CC0F002010B500240CE062001219D3005B189B00054A985062
:4014C000013100E000211729F3D90134002CF9D010BDC046640F002010B5FFF7E7FF0120FFF7AEFF10BDC04600280CDB00290ADB172808DC002906DC4B005918CB001818E3
:401500008000014BC2507047640F002000280CDB00290ADB172808DC002906DC4B005918CB0018188000024BC35818007047C046640F002002280FD002D8012805D020E050
:40154000032810D0042815D01BE0114A114B1A600122114B1A601AE0104A0E4B1A6002220D4B1A6013E00E4A0A4B1A6003220A4B1A600CE00B4A074B1A600422064B1A6001
:4015800005E0094A034B1A600022034B1A6070477F7F7F00C40F0020C80F00203F3F3F001F1F1F000F0F0F00FFFFFF0010B50322144B1A703832144B1A700B3A134B1A708C
:4015C000143A134B1A70134C012323700020FFF76DFF00232370002000F026F80020FFF7A9FF0D4B1B7D002B08D101220A4B1A750A4800F063F80A4800F090F80122094BA2
:401600001A6010BD91000F4041000F4021000F4031000F4072000F40140F0020C513000065130000CC0F002000280CD10C4A0D4B1A6005220C4B1A6002320C4B1A6019323F
:401640000B4B1A600BE0064A064B1A600522064B1A600232054B1A601932054B1A607047E0270000D80F0020D00F0020DC0F0020D40F0020014B98647047C0460000002098
:4016800010B5040000F061F8044A1168044B0B40A4051C43146000F05CF810BD00E400E0FFFF3FFF0422014B1A60704700E100E00422014B1A60704780E100E010B5040019
:4016C000FFF7F6FF2000FFF7D5FF0320FFF7D8FFFFF7E8FF10BDC046014BD8647047C0460000002010B5040000F02FF8044A13689B009B08A4071C43146000F02AF810BDCC
:4017000000E400E00822014B1A60704700E100E00822014B1A60704780E100E010B50400FFF7F6FF2000FFF7D7FF0320FFF7DAFFFFF7E8FF10BDC0460230800803D001388D
:40174000FDD1C046C046C0467047EFF3108072B6704780F310887047002243088B4274D303098B425FD3030A8B4244D3030B8B4228D3030C8B420DD3FF22090212BA030CA9
:401780008B4202D31212090265D0030B8B4219D300E0090AC30B8B4201D3CB03C01A5241830B8B4201D38B03C01A5241430B8B4201D34B03C01A5241030B8B4201D30B032E
:4017C000C01A5241C30A8B4201D3CB02C01A5241830A8B4201D38B02C01A5241430A8B4201D34B02C01A5241030A8B4201D30B02C01A5241CDD2C3098B4201D3CB01C01A2A
:40180000524183098B4201D38B01C01A524143098B4201D34B01C01A524103098B4201D30B01C01A5241C3088B4201D3CB00C01A524183088B4201D38B00C01A5241430810
:401840008B4201D34B00C01A5241411A00D20146524110467047FFE701B5002000F0F0F802BDC0460029F7D076E7704703460B437FD4002243088B4274D303098B425FD328
:40188000030A8B4244D3030B8B4228D3030C8B420DD3FF22090212BA030C8B4202D31212090265D0030B8B4219D300E0090AC30B8B4201D3CB03C01A5241830B8B4201D305
:4018C0008B03C01A5241430B8B4201D34B03C01A5241030B8B4201D30B03C01A5241C30A8B4201D3CB02C01A5241830A8B4201D38B02C01A5241430A8B4201D34B02C01A34
:401900005241030A8B4201D30B02C01A5241CDD2C3098B4201D3CB01C01A524183098B4201D38B01C01A524143098B4201D34B01C01A524103098B4201D30B01C01A5241B5
:40194000C3088B4201D3CB00C01A524183088B4201D38B00C01A524143088B4201D34B00C01A5241411A00D201465241104670475DE0CA0F00D04942031000D3404253407B
:4019800000229C4603098B422DD3030A8B4212D3FC22890112BA030A8B420CD3890192118B4208D3890192118B4204D389013AD0921100E08909C3098B4201D3CB01C01AFC
:4019C000524183098B4201D38B01C01A524143098B4201D34B01C01A524103098B4201D30B01C01A5241C3088B4201D3CB00C01A524183088B4201D38B00C01A5241D9D2EF
:401A000043088B4201D34B00C01A5241411A00D20146634652415B10104601D34042002B00D54942704763465B1000D3404201B5002000F005F802BD0029F8D016E7704769
:401A40007047C046014B18687047C046C40E00200E4B70B500251E000D4CE41AA410A54204D0AB00F35898470135F8E700F0C4FF084B00251E00084CE41AA410A54204D0B3
:401A8000AB00F35898470135F8E770BD042A0000042A0000042A00000C2A0000002310B59A4203D0CC5CC4540133F9E710BD03008218934202D019700133FAE770470000FE
:401AC0000EB410B59DB002A9029008610B48822488604861012040421FABC881084804CBA400006801938C8100F06EF80023029A13701DB010BC08BC03B01847FFFFFF7FDD
:401B0000C40E0020F0B58E6885B007000C00039201939E4243D890238A89DB001A423ED003250969236801985B1A029363695D43EB0F5D19029B6D1001331B18AB4200D9B6
:401B40001D00530510D52900380000F037FB061E14D0029A2169FFF7A1FFA289194B134080221343A38112E02A00380000F086FB061E0CD12169380000F0D4FA0C234022EF
:401B800001203B60A38940421343A38117E0029B2661F61826606561019EED1AA560019BB34200D21E0032000399206800F0A5FA0020A3689B1BA36023689E19266005B05A
:401BC000F0BDC0467FFBFFFFF0B59FB0029005938B890F0016001B0610D50B69002B0DD1402100F0EBFA38603861002804D10C23029A01381360D8E040237B61002306AD38
:401C00006B6120336B761033AB7634002378002B03D1A31B049312D003E0252BF9D00134F4E7A31B320039000298FFF76BFF431C00D1B4E06A69049B944663446B612378EE
:401C4000002B00D1ABE00122002352426A6002A95432521801342B60EB60AB601370AB65534E21780522300000F03CFA002807D00123801B83402A68013413432B60EFE73F
:401C80002B68DA0604D55322202102A8121811701A0704D553222B2102A81218117022782A2A03D0099B00200A210EE0059A111D12680591002A01DB099204E05242EA60DF
:401CC000022213432B6001340BE02278303A092A04D84B4301349B180120F6E7002800D0099323782E2B1ED163782A2B0AD1059B02341A1D1B680592002B01DA01235B42C8
:401D0000079310E000230A201A0001346B6021783039092904D84243013452180123F6E7002B00D00792234E21780322300000F0D9F9002806D04023801B83402A68013442
:401D400013432B60217806221B48661C297600F0C9F9002812D0194B002B06D10722059B073393430833059314E005AB00933A00134B2900029800E000BF07E005AB009314
:401D80003A000F4B2900029800F08AF80390039B013304D06B69039A9B186B6135E7BB890B985B0601D5012040421FB0F0BDC046C2290000C8290000CC2900000000000001
:401DC000051B0000F7B5170001938A680B6900900C00934200DA130022003B6043321278002A01D001333B6023689B0602D53B6802333B60062523681D401ED02300433312
:401E00001B785A1E9341226892061CD53020E1184331087021005A1C45310978A2184332023311700FE022000123193201990098089EB047431C0ED00135E3683A689B1AA4
:401E40009D42F0DBDAE72200019943320098089DA847431C02D10120404220E006232068E1683A6803400025042B03D18D1AEB43DB171D40A3682269934201DD9B1AED1897
:401E80000027BD420AD0220001231A3201990098089EB047431CDED00137F2E70020FEBDF0B58BB006920A0043320793059004920A7E0C00109B6E2A00D1ABE011D8632A63
:401EC00022D009D8002A00D1B5E0582A00D0C5E045310A70814A4FE0642A1DD0692A1BD0BCE0732A00D1AAE009D86F2A29D0702A00D0B3E0202209680A43226037E0752A69
:401F00001FD0782A33D0A9E00E001A684236111D196013683370A4E021681A68080606D4490604D5111D19600023D55E02E0111D19601568002D3BDA2D23049A6D421370B3
:401F400036E021681A68080606D4490604D51568111D1960ADB202E0111D196015685F4B227E039308276F2A1DD00A271BE022007821453211705A4A19680392081D2268CA
:401F800018600D68100602D4500600D5ADB2D30702D520231A4322601027002D03D1202322689A4322602300002243331A7002E00A274A4B03936368A360002B09DB042201
:401FC000216891432160002D05D1049E002B11D07BE0002D79D0049E28003900FFF742FC039B013E5B5C280033703900FFF7B4FB051EF1D1082F09D12368DB0706D5636804
:402000002269934202DC3023013E3370049B9B1B23612BE009681A68080607D4490605D5111D19601368A28A1A8004E0111D1960136862691A600023049E236116E01A6850
:40204000111D1960166800216268300000F04AF8002801D0801B6060636803E0260042363270012323610023049A1370079B09AA00932100069B0598FFF7A4FE431C02D1AF
:402080000120404227E02369320006990598079DA847431CF4D0236800259B070FD4099BE068984217DA180015E022000123193206990598079EB047431CE1D00135E368D3
:4020C000099A9B1A9D42F0DBE9E72600039B42361B7833708EE70BB0F0BDC046D3290000E4290000C9B28218904204D003788B4202D00130F8E70020704710B5884202D98A
:402100008B18984201D3002305E09B1A013A08D3995C8154FAE7934203D0CC5CC4540133F9E710BD70B50500002944D00C1F2368002B00DAE418280000F0D8F81E4A13681E
:402140001100002B02D16360146031E0A3420DD92268A018834203D118685B688218226063600C6024E0A24203D813005A68002AF9D11E689819A0420BD1216871185818D1
:402180001960824214D110685268411819605A600EE0A04202D90C232B6009E021686018824203D1106852684118216062605C60280000F09CF870BD300F0020032370B54B
:4021C000CD1C9D43083506000C2D01D20C2501E0002D01DBA94202D90C23336048E0300000F084F8234B1C681A002100002913D00B685B1B0DD40B2B02D90B60CC181EE0FF
:402200008C4202D1636813601AE04B6863600C0016E00C004968E9E7174C2368002B03D1300000F051F820602900300000F04CF8431C18D00323C41C9C43A0420DD12560EC
:40224000300000F054F8200007220B30231D9043C31A0ED05A42E2500BE0211A300000F033F8431CEBD10C233000336000F03FF8002070BD300F00202C0F0020F8B5060073
:402280000C001500002904D11100FFF797FF040018E0002A03D1FFF745FF2C0012E000F027F885420ED929003000FFF787FF071E07D021002A00FFF7F1FB21003000FFF70E
:4022C00031FF3C002000F8BD002370B5064C050008002360FEF736FA431C03D12368002B00D02B6070BDC046E00F0020704770470B1F1A68101F002A04DA891804390B6826
:40230000D018043870470000000000005374617274696E67206D6561737572656D656E74732E2E2E0000000041444320766F6C74616765203D202575206D56200D0A0000A8
:4023400000300F40000400400F400004011811182114310C730F0902110416031A011B071F012A02310433013402350236013E503F15580459045F0180028204830886101E
:40238000871088068A388E018F109408962698029B069C049D04A001A401A503A801A901AB08AC01AF19B00EB107B218B420B508B601B710B902BE40BF50C015C550C612F2
:4023C000C80EC9FFCAFFCBFFCDA0D804D904DA04DB04DC99DD09DF01E040E140E2C0E4C0E6C00440051406800A280D200E200F021110175518021A041C481D0C1F502209F4
:402400002304258027882F2A308232103610378039103C883E0147804F825520564057406F5581808E10C0F0C2E6C4F2CA70CC3DCED4D010D210028908100A020E210F57F5
:402440001102132014A41504165A1790186D1A121B081E492249255726492708282129A02B5F2D0130C03207330F343835C0373038083A023BA04023460B47EC483449FF6F
:402480004AFF4BFF580459045A045B045C995D095F0162C064406501950196069B01A002AE04B001B204B602B701BE45BF40D804D904DB04DF010501060107090A200D80E5
:4024C0000E2810821648170418111A401D111E281F252002258027262F25321437263F8045084720568A57085CA066016720688269106A086E016F037440770880208202AC
:402500008481860C8C1192249320951096499A409D109E80A108A340A4C2A610A72AA801AB08AF40B209B304B640C0D0C2E4C479CA70CCE6CE10D060D630D8C0E002E408D0
:40254000EA10EC04EE40512054028302D420D620E6806C84730290089B02A080A880AD20B406DA80DC60EA300A801280534057205B205C808E80C208C408D407D604E202D4
:40258000500457205B205F8087A08C048F20AB20B080B360B640D407D604E008E408E804EA08EC050201110105000F4046300F402A310F4040320F4048330F4006400F403C
:4025C0000B410F400C420F4012430F4002600F40030405060708090A0B0C0E0F101112131415161718191B1C1D1E1F2021222325262728292A2B2E2F30313233343500005E
:40260000FFFF0000FFCC0000FF990000FF330000FF000000B3006600990099006600B3003300CC001919B3000033990000409900006699000099990000CC990000E6660039
:4026400000FF000033FF000066FF000080FF000099FF0000B2FF0000CCFF0000E5FF000000000000000055000000AA000000FF0055000000550055005500AA005500FF00FD
:40268000AA000000AA005500AA00AA00AA00FF00FF000000FF005500FF00AA00FF00FF0000550000005555000055AA000055FF0055550000555555005555AA005555FF0082
:4026C000AA550000AA555500AA55AA00AA55FF00FF550000FF555500FF55AA00FF55FF0000AA000000AA550000AAAA0000AAFF0055AA000055AA550055AAAA0055AAFF00F2
:40270000AAAA0000AAAA5500AAAAAA00AAAAFF00FFAA0000FFAA5500FFAAAA00FFAAFF0000FF000000FF550000FFAA0000FFFF0055FF000055FF550055FFAA0055FFFF0061
:40274000AAFF0000AAFF5500AAFFAA00AAFFFF00FFFF0000FFFF5500FFFFAA00FFFFFF00FF800000FF008000FF00FF008000FF000080FF0000FF8000FF00000020202000E9
:4027800000002000000000100000000000000000000000000000000000000000000000000000FF000010F0000020E0000030D0000040C0000050B0000060A00000709000EA
:4027C000008080000090700000A0600000B0500000C0400000D0300000E0200000FF0000000000000000005F00000007000700147F147F14242A7F2A1223130864623649A7
:402800005522500005030000001C2241000041221C00082A1C2A0808083E080800503000000808080808006060000020100804023E5149453E00427F400042615149462147
:4028400041454B311814127F1027454545393C4A49493001710905033649494936064949291E003636000000563600000008142241141414141441221408000201510906AC
:40288000324979413E7E1111117E7F494949363E414141227F4141221C7F494949417F090901013E414151327F0808087F00417F41002040413F017F081422417F404040DE
:4028C000407F0204027F7F0408107F3E4141413E7F090909063E4151215E7F09192946464949493101017F01013F4040403F1F2040201F7F2018207F63140814630304789E
:402900000403615149454300007F4141020408102041417F000004020102044040404040000102040020545454787F484444383844444420384444487F3854545418087EE1
:40294000090102081454543C7F0804047800447D40002040443D00007F10284400417F40007C041804787C0804047838444444387C14141408081414187C7C0804040848B3
:4029800054545420043F4440203C4040207C1C2040201C3C4030403C44281028440C5050503C4464544C44000836410000007F0000004136080008082A1C08081C2A0808F7
:4029C0004300232D302B2000686C4C006566674546470030313233343536373839414243444546003031323334353637383961626364656600000000F8B5C046F8BC08BC76
:402A00009E467047F5020000BD070000F8B5C046F8BC08BC9E467047CD020000D02D0000400E00208800000020010000000000000000000000000000000000000000000097
:402A40000000000000000000000000000000000000000000000000000000000000000000000000000000000000000000000000000000000000000000000000000000000056
:402A80000000000000000000000000000000000000000000000000000000000000000000000000000000000000000000000000000000000000000000000000000000000016
:402AC00000000000000000000000000000000000000000000000000000000000000000000000000000000000000000000000000000000000000000000000000000000000D6
:402B00000000000000000000000000000000000000000000000000000000000000000000000000000000000000000000000000000000000000000000000000000000000095
:402B40000000000000000000000000000000000000000000000000000000000000000000000000000000000000000000000000000000000000000000000000000000000055
:402B80000000000000000000000000000000000000000000000000000000000000000000000000000000000000000000000000000000000000000000000000000000000015
:402BC00000000000000000000000000000000000000000000000000000000000000000000000000000000000000000000000000000000000000000000000000000000000D5
:402C00000000000000000000000000000000000000000000000000000000000000000000000000000000000000000000000000000000000000000000000000000000000094
:402C40000000000000000000000000000000000000000000000000000000000000000000000000000000000000000000000000000000000000000000000000000000000054
:402C80000000000000000000000000000000000000000000000000000000000000000000000000000000000000000000000000000000000000000000000000000000000014
:402CC00000000000000000000000000000000000000000000000000000000000000000000000000000000000000000000000000000000000000000000000000000000000D4
:402D00000000000000000000000000000000000000000000000000000000000000000000000000000000000000000000000000000000000000000000000000000000000093
:402D40000000000000000000000000000000000000000000000000000000000000000000000000000000000000000000000000000000000000000000000000000000000053
:402D80000000000000000000000000000000000000000000000000000000000000000000000000000000000000000000000000000000000000000000000000000000000013
:402DC0000000000000000000001005000000000000000000E80F0020010000000000C05D80BB000030000000006CDC02F000000004040400000000000000000000000000D8
:402E00000000000000000000000000000000000000000000C029000000000000000000000000000000000000000000000000000000000000000000000000000000000000A9
:402E40000000000000000000000000000000000000000000640E002000000000000000000000000000000000000000000000000000000000000000000000000000000000C0
:402E80000000000000000000000000000000000000000000000000000000000000000000000000000000000000000000000000000000000000000000000000000000000012
:402EC00000000000000000000000000000000000000000000000000000000000000000000000000000000000000000000000000000000000000000000000000000000000D2
:402F00000000000000000000000000000000000000000000000000000000000000000000000000000000000000000000000000000000000000000000000000000000000091
:402F40000000000000000000000000000000000000000000000000000000000000000000000000000000000000000000000000000000000000000000000000000000000051
:020000040003F7
:0200000490303A
:0200000038B90D
:0200000490402A
:4000000000000000000000000000000000000000000000000000000000000000000000000000000000000000000000000000000000000000000000000000000000000000C0
:400040000000000000000000000000000000000000000000000000000000000000000000000000000000000000000000000000000000000000000000000000000000000080
:0200000490501A
:0C00000000021A1711AA00011A244A631A
:0200000490600A
:0100000001FE
:00000001FF